{
  "contractName": "Hello",
  "abi": [
    {
      "constant": true,
      "inputs": [],
      "name": "getCreator",
      "outputs": [
        {
          "name": "",
          "type": "address"
        }
      ],
      "payable": false,
      "stateMutability": "view",
      "type": "function"
    },
    {
      "constant": false,
      "inputs": [
        {
          "name": "newMessage",
          "type": "string"
        }
      ],
      "name": "setMessage",
      "outputs": [],
      "payable": false,
      "stateMutability": "nonpayable",
      "type": "function"
    },
    {
      "constant": true,
      "inputs": [],
      "name": "getTotalGas",
      "outputs": [
        {
          "name": "",
          "type": "uint256"
        }
      ],
      "payable": false,
      "stateMutability": "view",
      "type": "function"
    },
    {
      "constant": true,
      "inputs": [],
      "name": "getLastCaller",
      "outputs": [
        {
          "name": "",
          "type": "address"
        }
      ],
      "payable": false,
      "stateMutability": "view",
      "type": "function"
    },
    {
      "constant": true,
      "inputs": [],
      "name": "getMessage",
      "outputs": [
        {
          "name": "",
          "type": "string"
        }
      ],
      "payable": false,
      "stateMutability": "view",
      "type": "function"
    },
    {
      "inputs": [],
      "payable": false,
      "stateMutability": "nonpayable",
      "type": "constructor"
    }
  ],
  "bytecode": "0x6060604052341561000f57600080fd5b326000806101000a81548173ffffffffffffffffffffffffffffffffffffffff021916908373ffffffffffffffffffffffffffffffffffffffff1602179055503a6003819055506040805190810160405280600b81526020017f68656c6c6f20776f726c64000000000000000000000000000000000000000000815250600290805190602001906100a19291906100a7565b5061014c565b828054600181600116156101000203166002900490600052602060002090601f016020900481019282601f106100e857805160ff1916838001178555610116565b82800160010185558215610116579182015b828111156101155782518255916020019190600101906100fa565b5b5090506101239190610127565b5090565b61014991905b8082111561014557600081600090555060010161012d565b5090565b90565b6104858061015b6000396000f30060606040526004361061006d576000357c0100000000000000000000000000000000000000000000000000000000900463ffffffff1680630ee2cb1014610072578063368b8772146100c757806364326c7114610124578063880b36e71461014d578063ce6d41de146101a2575b600080fd5b341561007d57600080fd5b610085610230565b604051808273ffffffffffffffffffffffffffffffffffffffff1673ffffffffffffffffffffffffffffffffffffffff16815260200191505060405180910390f35b34156100d257600080fd5b610122600480803590602001908201803590602001908080601f01602080910402602001604051908101604052809392919081815260200183838082843782019150505050505091905050610259565b005b341561012f57600080fd5b6101376102c4565b6040518082815260200191505060405180910390f35b341561015857600080fd5b6101606102ce565b604051808273ffffffffffffffffffffffffffffffffffffffff1673ffffffffffffffffffffffffffffffffffffffff16815260200191505060405180910390f35b34156101ad57600080fd5b6101b56102f8565b6040518080602001828103825283818151815260200191508051906020019080838360005b838110156101f55780820151818401526020810190506101da565b50505050905090810190601f1680156102225780820380516001836020036101000a031916815260200191505b509250505060405180910390f35b60008060009054906101000a900473ffffffffffffffffffffffffffffffffffffffff16905090565b806002908051906020019061026f9291906103a0565b5032600160006101000a81548173ffffffffffffffffffffffffffffffffffffffff021916908373ffffffffffffffffffffffffffffffffffffffff1602179055503a60036000828254019250508190555050565b6000600354905090565b6000600160009054906101000a900473ffffffffffffffffffffffffffffffffffffffff16905090565b610300610420565b60028054600181600116156101000203166002900480601f0160208091040260200160405190810160405280929190818152602001828054600181600116156101000203166002900480156103965780601f1061036b57610100808354040283529160200191610396565b820191906000526020600020905b81548152906001019060200180831161037957829003601f168201915b5050505050905090565b828054600181600116156101000203166002900490600052602060002090601f016020900481019282601f106103e157805160ff191683800117855561040f565b8280016001018555821561040f579182015b8281111561040e5782518255916020019190600101906103f3565b5b50905061041c9190610434565b5090565b602060405190810160405280600081525090565b61045691905b8082111561045257600081600090555060010161043a565b5090565b905600a165627a7a7230582083edfc6a06c4609ca9ce5aa04738db9ecdd09e0d54387e90abe7048bc638d6b50029",
  "source": "pragma solidity ^0.4.4;\n\ncontract Hello {\n  address private creator;\n  address private lastCaller;\n  string private message;\n  uint private totalGas;\n\n  //constructor\n  function Hello() {\n    creator = tx.origin;\n    totalGas = tx.gasprice;\n    message = 'hello world';\n  }\n\n  //Begin: getters\n  function getMessage() constant returns(string) {\n    return message;\n  }\n\n  function getLastCaller() constant returns(address) {\n    return lastCaller;\n  }\n\n  function getCreator() constant returns(address) {\n    return creator;\n  }\n\n  function getTotalGas() constant returns(uint) {\n    return totalGas;\n  }\n  //End: getters\n\n  //Being: setters\n  function setMessage(string newMessage) {\n    message = newMessage;\n    lastCaller = tx.origin;\n    totalGas += tx.gasprice;\n  }\n}\n",
  "sourcePath": "/home/hubert/Desktop/helloSmartContract/contracts/Hello.sol",
  "compiler": {
    "name": "solc",
    "version": "0.4.18+commit.9cf6e910.Emscripten.clang"
  },
  "schemaVersion": "1.0.1",
  "updatedAt": "2018-01-04T15:33:10.440Z"
}